:100000000C94F3000C94C80B0C94A10B0C947A0B79
:100010000C94530B0C941B010C941B010C942C0B93
:100020000C941B010C941B010C947F0C0C94530337
:100030000C941B010C941B010C941B010C941B01D0
:100040000C941B010C941B010C941B010C941B01C0
:100050000C94EF0B0C941B010C941B010C94E20A02
:100060000C941B010C941B010C941B010C941B01A0
:100070000C941B010C941B010C941B010C941B0190
:100080000C941B010C941B010C941B010C941B0180
:100090000C941B010C941B010C941B010C941B0170
:1000A0000C941B010C941B010C941B013E02410299
:1000B000300234023A0262026202620245024902DE
:1000C0004D025302570262025D0215061A061F0610
:1000D000290633067D067D067D063D064706510648
:1000E0005B0668067D0670060000000024002700FD
:1000F0002A002D00300000000000250028002B0001
:100100002E003100000000002300260029002C00F2
:100110002F00040404040403040502020202040381
:100120000202020206060606060604040202020491
:1001300004040802011040804010204080408008E4
:100140000204018040201002011080102040402055
:100150000000000200090F0000030401000C000071
:100160000000000000000000000000000000000887
:100170000B0002020201000904000001020200005B
:1001800005240010010524010101042402060524B0
:100190000600010705810310004009040100020A5E
:1001A000000000070502024000000705830240002E
:1001B000000403090412010002EF0201404123364A
:1001C0008000010102030141726475696E6F204C69
:1001D0004C430041726475696E6F204C656F6E61AF
:1001E00072646F00F10C11241FBECFEFDAE0DEBFA6
:1001F000CDBF11E0A0E0B1E0E8E3FCE102C0059072
:100200000D92A634B107D9F721E0A6E4B1E001C010
:100210001D92AC3CB207E1F710E0C3EFD0E004C0A0
:100220002197FE010E940F0EC23FD107C9F70E941D
:10023000060D0C941A0E0C94000040915E01509132
:100240005F0120915C0130915D0142175307B4F4C6
:100250009091E8009570E1F39091E80092FD19C04B
:100260008093F10080915E0190915F0101968F7300
:100270009927892B19F48EEF8093E80080915E0115
:1002800090915F01019690935F0180935E0181E000
:10029000089580E00895CF92DF92EF92FF920F933E
:1002A0001F93CF93DF931F92CDB7DEB7182F062F82
:1002B000E42E862F880F8E5F99830E941D0183E0B4
:1002C0000E941D01F12EC12E9981D92E8C2D8F19DE
:1002D000801798F4F601E7FE02C0849101C0808186
:1002E0000E941D01182F80E00E941D018123FFEF55
:1002F000CF1ADF0A8111EACF01C081E00F90DF91B0
:10030000CF911F910F91FF90EF90DF90CF900895C4
:10031000DF92EF92FF920F931F93CF93DF93D82E2C
:100320008A017B01E40EF51EEB01CE15DF0571F0AD
:10033000D7FE03C0FE01849101C088810E941D0187
:1003400021968111F2CF8FEF9FEF01C0C801DF919D
:10035000CF911F910F91FF90EF90DF900895615022
:1003600030F02091F100FC0120830196F8CF28980D
:1003700084E68093BC010895CF92DF92EF92FF92C2
:100380000F931F93CF93DF936C017A018B01C0E031
:10039000D0E0CE15DF0589F0D8016D918D01D60131
:1003A000ED91FC910190F081E02DC6010995892B1A
:1003B00011F47E0102C02196ECCFC701DF91CF91ED
:1003C0001F910F91FF90EF90DF90CF900895CF9302
:1003D000DF931F92CDB7DEB76983DC01ED91FC910D
:1003E0000280F381E02D41E050E0BE016F5F7F4F5E
:1003F00009950F90DF91CF91089583E08093E900F4
:100400008091F200882319F08AE38093E800089530
:10041000FC018485958597FD0BC09FB7F89482E019
:100420008093E9008091F2009FBF90E001960895CB
:100430009FB7F89482E08093E9008091F2009FBF1B
:1004400090E00895089580E090E0089590E0FC0128
:100450003197EF30F105B0F5EA5AFF4F0C940F0ECB
:10046000809180008F7703C0809180008F7D809382
:100470008000089580918000877FF9CF84B58F77C1
:1004800002C084B58F7D84BD0895809190008F77E0
:1004900007C0809190008F7D03C080919000877F7E
:1004A0008093900008958091C0008F7703C0809161
:1004B000C0008F7D8093C00008958091C200877F27
:1004C0008093C20008951F93CF93DF93282F30E0CD
:1004D000F901E05BFE4F8491F901EF5CFE4FD4918E
:1004E000F901EE5EFE4FC491CC23C9F0162F8111A5
:1004F0000E942602EC2FF0E0EE0FFF1FEA50FF4FA4
:10050000A591B4918FB7F894111105C09C91ED2F6E
:10051000E095E92302C0EC91ED2BEC938FBFDF91C6
:10052000CF911F9108953FB7F89480915801909111
:100530005901A0915A01B0915B0126B5A89B05C055
:100540002F3F19F00196A11DB11D3FBFBA2FA92F52
:10055000982F8827820F911DA11DB11DBC01CD01CF
:1005600042E0660F771F881F991F4A95D1F70895BB
:10057000089581E08093460108950F931F93CF93D0
:10058000DF931F92CDB7DEB782E0898342E450E06B
:100590006FE671E080E80E9488010E946B0CDC012C
:1005A00012960D911C9113970115110569F0D80150
:1005B000ED91FC910280F381E02DBE016F5F7F4FD2
:1005C000C801099597FF07C089810F90DF91CF91EE
:1005D0001F910F910895F80100851185E5CF0E94C4
:1005E0005A0C90E00895CF93DF931F92CDB7DEB7FA
:1005F000FC018485958597FD05C02FEF3FEF35877A
:1006000024870BC0CE0101960E94300C019719F48B
:10061000898190E002C08FEF9FEF0F90DF91CF9123
:10062000089584E691E00E940802181619062CF439
:1006300084E691E00E94F302F4CF08950F931F9394
:10064000CF93DF931F92CDB7DEB78C01FC01848579
:10065000958597FF0EC0CE0101960E94300C019740
:1006600019F4298130E002C02FEF3FEFF801358700
:100670002487F801848595850F90DF91CF911F9194
:100680000F91089580912001811108C060E00E94BF
:10069000160C0E94110382E493E008950E94110356
:1006A00080E798E008951F920F920FB60F921124E1
:1006B000CF92DF92EF92FF920F931F932F933F936E
:1006C0004F935F936F937F938F939F93AF93BF935A
:1006D000EF93FF93CF93DF93CDB7DEB76C97DEBF79
:1006E000CDBF1092E9008091E80083FFEDC168E082
:1006F000CE0145960E94AF0182EF8093E8008D897C
:1007000087FF05C09091E80090FFFCCF03C09EEFEB
:100710009093E800982F907609F0C6C09E892F89A3
:10072000188D91110CC0803829F480916301809359
:10073000F10002C01092F1001092F10048C1422F66
:1007400050E0512B913051F4811141C1413051059C
:1007500009F03DC1809163018D7F0BC0933061F43E
:10076000811135C14130510509F031C180916301DA
:100770008260809363012BC1953041F48091E80041
:1007800080FFFCCF20682093E30021C1963009F060
:100790005FC0EB8CFC8C1092E90010925F0110920C
:1007A0005E01123091F510925D0110925C010E9481
:1007B000BD0299E0BE016F5F7F4FDB01E92F1D9203
:1007C000EA95E9F799831A8391E09E8390EA9887E6
:1007D0009AEF998720915E0130915F01275F3F4F2B
:1007E0003C832B838D831092E90010925F0110925D
:1007F0005E01F0925D01E0925C0149E050E080E032
:100800000E9488010E94BD02E2C0F0925D01E09268
:100810005C010E946B0CDC011296ED90FC9013972A
:10082000E114F10409F4C0C0D701ED91FC910480FA
:10083000F581E02DBE016B5E7F4FC70109950097E2
:1008400019F00CF0C4C0C7C0F701E084F184E8CF10
:10085000973009F4C0C0983021F481E08093F10012
:10086000B6C0993009F0B3C0837009F0B4C0E4E3B6
:10087000F1E081E021E036E39081992361F08093FB
:10088000E9002093EB0091919093EC003093ED0000
:100890008F5F873089F78EE78093EA001092EA0035
:1008A0008F898093BD0193C08B8D9C8D1092E90040
:1008B00010925F0110925E0190935D0180935C0144
:1008C000898D811156C08E899D89913A59F4813262
:1008D00009F081C047E050E06EE071E080E00E94E6
:1008E000880175C0913209F076C0833289F4888D11
:1008F00090E0982F88272F89822BA0E0B0E080938A
:100900000A0190930B01A0930C01B0930D015FC0FD
:10091000803269F48091E80082FFFCCF67E08EE0CE
:1009200091E00E94AF018BEF8093E80006C0823215
:1009300009F04DC08F898093150180916101882352
:1009400019F0EEEFFAE002C0E0E0F8E080910E016D
:1009500090910F01A0911001B0911101803B944042
:10096000A105B10509F07BC08091150180FF93C0FE
:1009700076C00E946B0CDC0112960D911C911397AE
:100980000115110541F1D801ED91FC910190F08123
:10099000E02DBE016B5E7F4FC8010995811117C024
:1009A000F80100851185ECCF113009F44EC01330E9
:1009B00091F48F89882309F445C0823081F440E89E
:1009C00060E183ED91E00E944B01882321F08EEFDE
:1009D0008093E80079C081E28093EB0075C081309C
:1009E00029F440E86BE087EC91E0EDCF833099F794
:1009F0000E946B0CDC011296ED90FC9013978E0117
:100A00000F5F1F4F6801E114F10479F0D701ED91F8
:100A1000FC910680F781E02DB801C7010995080F08
:100A2000111DF701E084F184EECFD8011C92F6018C
:100A300001900020E9F73197BF016C197D0940E072
:100A4000C601C1CF61EB71E002C065EB71E06115D9
:100A5000710509F2FB01449150E080E840CF0FB6E8
:100A6000F894A8958091600088618093600010924E
:100A700060000FBEA895EE3F2AE0F20739F08091A2
:100A8000FE0A9091FF0A91838083A1CF1092FF0A02
:100A90001092FE0A9CCFEE3F8AE0F80731F0808189
:100AA00091819093FF0A8093FE0A87E797E79183ED
:100AB00080839BE088E10FB6F894A895809360004E
:100AC0000FBE9093600083CF6C960FB6F894DEBF94
:100AD0000FBECDBFDF91CF91FF91EF91BF91AF914D
:100AE0009F918F917F916F915F914F913F912F9146
:100AF0001F910F91FF90EF90DF90CF900F900FBE5E
:100B00000F901F901895CF93DF93282F30E0F901B5
:100B1000E05BFE4F8491F901EF5CFE4FD491F90147
:100B2000EE5EFE4FC491CC2391F081110E9426020B
:100B3000EC2FF0E0EE0FFF1FEC5FFE4FA591B4919C
:100B4000EC91ED2381E090E021F480E002C080E0B0
:100B500090E0DF91CF91089587E00E948305809314
:100B600020010895CF93DF9390E0FC01EF5CFE4FEE
:100B70002491FC01EE5EFE4F8491882361F190E0A8
:100B8000880F991FFC01E851FF4FC591D491FC01DA
:100B9000EA50FF4FA591B491611109C09FB7F89435
:100BA0008881209582238883EC912E230BC06230AC
:100BB00061F49FB7F8943881822F809583238883CE
:100BC000EC912E2B2C939FBF06C08FB7F894E88131
:100BD0002E2B28838FBFDF91CF9108951F93CF9342
:100BE000DF93182FEB0161E00E94B205209711F40A
:100BF00060E004C0CF3FD10539F461E0812FDF917F
:100C0000CF911F910C946302E12FF0E0E05BFE4F67
:100C1000E4914E2F50E0FA013197EF30F10508F0E2
:100C20006CC0EB59FF4F0C940F0E84B5806884BDE7
:100C3000C7BD68C084B5806284BDC8BD63C08091F3
:100C40008000806880938000D0938900C0938800E2
:100C500059C080918000806280938000D0938B0087
:100C6000C0938A004FC0809180008860809380008C
:100C7000D0938D00C0938C0045C080919000806817
:100C800080939000D0939900C09398003BC08091CE
:100C90009000806280939000D0939B00C0939A0054
:100CA00031C080919000886080939000D0939D0027
:100CB000C0939C0027C08091C00080688093C000D2
:100CC0008091C0008F7B8093C000C093CF001AC07A
:100CD0008091C00080628093C000C093D00012C099
:100CE0008091C20088608093C2008091C2008B7F97
:100CF0008093C200C093D20005C0C038D1050CF06B
:100D00007CCF76CFDF91CF911F91089560E070E0A6
:100D100086E00E94EE056FEF70E089E00E94EE052C
:100D20006FEF70E08AE00C94EE058F929F92AF9285
:100D3000BF92CF92DF92EF92FF926B017C010E94F3
:100D400093024B015C01C114D104E104F104F1F000
:100D50000E949302DC01CB0188199909AA09BB09F9
:100D6000883E9340A105B10570F321E0C21AD10875
:100D7000E108F10888EE880E83E0981EA11CB11CE2
:100D8000C114D104E104F10419F7DDCFFF90EF9015
:100D9000DF90CF90BF90AF909F908F9008958F92EB
:100DA0009F92AF92BF92CF92DF92EF92FF920F93FA
:100DB0001F93CF93DF935C016B017A018091150142
:100DC000882309F45BC08091BD01882309F456C0D3
:100DD0008091620180FF05C08091E0008260809375
:100DE000E000E70110E00AEF83E0882E9AE3992EF5
:100DF0002097D9F10E945A0C81110AC0015009F4C0
:100E00003DC061E070E080E090E00E949506F0CF88
:100E1000282F30E0C217D3070CF48C2F4FB7F8946B
:100E20008092E9009091E80095FF1DC0282F30E0E6
:100E3000C21BD30BF601982F915020F08191809323
:100E4000F100FACFC20ED31E112319F09092E800E0
:100E500009C08091E80085FD06C09092E80011E08D
:100E6000209709F010E04FBFC3CF1111C3CF5D9899
:100E700084E6809360011E141F0444F081E090E03A
:100E8000F5019383828380E090E001C0C701DF9188
:100E9000CF911F910F91FF90EF90DF90CF90BF9077
:100EA000AF909F908F90089560E08FEF0E94160C96
:100EB0006AE070E080E090E00E94950660E08FEFCD
:100EC0000E94160C6AE070E080E090E00E949506B7
:100ED00060E080E00E94160C6FE070E080E090E03F
:100EE0000C9495061F93CF93DF93182FC0914D015B
:100EF000D0914E016FEF70E06C1B7D0B86E00E947D
:100F0000EE056FEF70E089E00E94EE056FEF70E094
:100F10008AE00E94EE052091060130910701C20F80
:100F2000D31FD0934E01C0934D012197CF3ED105E1
:100F300038F031952195310930930701209306014E
:100F4000612F70E080E090E0DF91CF911F910C94D1
:100F5000950661E088E00E94630262E370E080E051
:100F600090E00E94950660E088E00C9463020E9485
:100F7000A9070E94110384E39AE008950E94A9073B
:100F80000E94110384E39AE008952FB7F8946091CA
:100F900054017091550180915601909157012FBFD6
:100FA00008950F931F930E94C5070091B8011091F7
:100FB000B9012091BA013091BB01601B710B820B0A
:100FC000930B1F910F9108950F931F93CF93DF936E
:100FD0000E94C5072091B8013091B901EB01C21BF5
:100FE000D30B0E94C5070091B4011091B501209167
:100FF000B6013091B701DC01CB01801B910BA20B34
:10100000B30B893B9B40A105B10528F0C93B8BE0A0
:10101000D8070CF053C084E691E00E94080218162D
:1010200019060CF043C084E691E00E94F3028C01A3
:1010300090934801809347010E94110302341105E7
:10104000C9F50E94C5076093B8017093B9018093F8
:10105000BA019093BB016093B4017093B501809382
:10106000B6019093B7016FEF80E00E94160C6AE022
:1010700070E080E090E00E94950660E08FEF0E94B3
:10108000160C6AE070E080E090E00E94950660E057
:1010900080E00E94160C6FE070E080E090E00E941B
:1010A0009506BE01DD0F880B990B15C060E070E05E
:1010B000CB0111C06FEF7FEFCB010DC00E94540731
:1010C0000E94C5076093B4017093B5018093B60187
:1010D0009093B701A0CFDF91CF911F910F91089509
:1010E000CF93DF938091200181110BC00E9486066F
:1010F00060E570E080E090E00E94950682E493E075
:101100006DC06FEF70E086E00E94EE05C0914B016C
:10111000D0914C016FEF70E06C1B7D0B89E00E9459
:10112000EE056FEF70E08AE00E94EE058091040109
:1011300090910501C80FD91FD0934C01C0934B016A
:101140002197C635D10538F09195819591099093F5
:101150000501809304018091040190910501181606
:1011600019062CF466E170E080E090E004C06DE2C6
:1011700070E080E090E00E9495060E94D107603107
:1011800077428105910534F10E94E407161617068F
:1011900018061906FCF082E00E948305892BA9F04D
:1011A00064E670E080E090E00E9495060E94C5072A
:1011B0006093B8017093B9018093BA019093BB0119
:1011C0000E9411038EEB97E009C00E94110380E793
:1011D00098E004C00E94110384E39AE0DF91CF916C
:1011E0000895CF92DF92EF92FF920E94E4070E944F
:1011F000D1076B017C0160934F0170935001809384
:10120000510190935201603177428105910538F088
:101210000E94E40716161706180619061CF484E047
:101220009AE03FC0D701C60181519742A109B10997
:101230008F309742A105B10510F489E10CC0D701A8
:10124000C60181529E44A109B1098F309742A10580
:10125000B10520F48FE00E94720717C0D701C601C4
:1012600081539547A109B1098F399846A640B10528
:1012700018F485E00E94720789ECC8168FEAD80638
:10128000E104F10410F00E9486060E94D107613645
:101290007A4E8105910518F481EF98E002C087EB42
:1012A00097E0FF90EF90DF90CF9008950F931F93FA
:1012B000CF93DF93C09115016AE070E080E090E089
:1012C0000E949506CC23E9F0E0916401F09165015C
:1012D0000280F381E02D48E050E06AE371E084E6AB
:1012E00091E00995E0916401F09165010280F3813C
:1012F000E02D42E050E063E471E084E691E009957E
:1013000028C00E94540768E270E080E090E00E94EC
:1013100095060E94540768E270E080E090E00E9429
:1013200095060E94540768E270E080E090E00E9419
:1013300095060E94540768E270E080E090E00E9409
:1013400095060E94540768E270E080E090E00E94F9
:1013500095060E94E40760934F01709350018093BB
:10136000510190935201C0914D01D0914E010FEF68
:1013700010E00C1B1D0BB80186E00E94EE05B801C1
:1013800089E00E94EE056FEF70E08AE00E94EE05B2
:101390008091080190910901C80FD91FD0934E0187
:1013A000C0934D012197CB38D10538F091958195A7
:1013B000910990930901809308018091080190910F
:1013C0000901181619062CF463E270E080E090E041
:1013D00004C06BE070E080E090E00E9495060E94FF
:1013E000D10760317742810591052CF40E941103E9
:1013F00086E599E004C00E94110382E493E0DF9146
:10140000CF911F910F91089560E080E00E94160C2B
:101410000E94E40760934F01709350018093510143
:10142000909352018091200181110EC00E94D1073A
:101430006133754781059105A4F40E94E40797FD87
:1014400010C086E599E008950E94D1076131774286
:10145000810591051CF484E09AE0089581EF98E0FD
:10146000089582E493E00895CF92DF92EF92FF9285
:101470000F931F93CF93DF930E94D107613177427F
:10148000810591050CF090C00E94E407161617061E
:10149000180619060CF48BC0E0904D01F0904E0137
:1014A000CC24CA94D12CB6016E197F0986E00E9423
:1014B000EE0500914B0110914C01B601601B710BC0
:1014C00089E00E94EE05C0914901D0914A01B60120
:1014D0006C1B7D0B8AE00E94EE0540910601509145
:1014E0000701E40EF51EF0924E01E0924D012091AD
:1014F000040130910501020F131F10934C0100935A
:101500004B018091080190910901C80FD91FD09318
:101510004A01C093490161E0E61AF10867ECE6165A
:10152000F10438F0519541955109509307014093CA
:101530000601015011090E3F110538F03195219532
:10154000310930930501209304012197CA39D1054F
:1015500038F0919581959109909309018093080144
:10156000809100019091010160910201709103014D
:10157000680F791F70930301609302019B01225051
:1015800031092632310538F0919581959109909372
:10159000010180930001072E000C880B990B0E941B
:1015A000950684E39AE005C080E798E002C084E0F5
:1015B0009AE0DF91CF911F910F91FF90EF90DF9014
:1015C000CF9008951F920F920FB60F9211242F9370
:1015D0003F938F939F93AF93BF93809154019091CA
:1015E0005501A0915601B09157013091530123E06C
:1015F000230F2D3720F40196A11DB11D05C026E84B
:10160000230F0296A11DB11D209353018093540115
:1016100090935501A0935601B093570180915801C2
:1016200090915901A0915A01B0915B010196A11DC1
:10163000B11D8093580190935901A0935A01B09322
:101640005B01BF91AF919F918F913F912F910F902F
:101650000FBE0F901F9018951F920F920FB60F920A
:1016600011242F933F934F935F936F937F938F93A7
:101670009F93AF93BF93EF93FF93E0911E01F0917F
:101680001F010995FF91EF91BF91AF919F918F91AC
:101690007F916F915F914F913F912F910F900FBE6E
:1016A0000F901F9018951F920F920FB60F92112452
:1016B0002F933F934F935F936F937F938F939F935A
:1016C000AF93BF93EF93FF93E0911C01F0911D0145
:1016D0000995FF91EF91BF91AF919F918F917F916C
:1016E0006F915F914F913F912F910F900FBE0F908F
:1016F0001F9018951F920F920FB60F9211242F93DF
:101700003F934F935F936F937F938F939F93AF9389
:10171000BF93EF93FF93E0911A01F0911B0109959C
:10172000FF91EF91BF91AF919F918F917F916F91B9
:101730005F914F913F912F910F900FBE0F901F908F
:1017400018951F920F920FB60F9211242F933F936B
:101750004F935F936F937F938F939F93AF93BF93B9
:10176000EF93FF93E0911801F09119010995FF9112
:10177000EF91BF91AF919F918F917F916F915F9109
:101780004F913F912F910F900FBE0F901F90189582
:101790001F920F920FB60F9211242F933F934F93E6
:1017A0005F936F937F938F939F93AF93BF93EF93C9
:1017B000FF93E0911601F09117010995FF91EF91C8
:1017C000BF91AF919F918F917F916F915F914F9159
:1017D0003F912F910F900FBE0F901F9018951F9261
:1017E0000F920FB60F9211242F933F934F935F9355
:1017F0006F937F938F939F93AF93BF93EF93FF93D9
:10180000E0E0F0E00995FF91EF91BF91AF919F91DA
:101810008F917F916F915F914F913F912F910F9099
:101820000FBE0F901F9018950E94150E1F93CF9317
:10183000DF93162FCFEFD0E0BE01681B710986E061
:101840000E94EE05BE01611B710989E00E94EE0550
:101850006FEF70E08AE0DF91CF911F910C94EE055D
:10186000FC018091BD01811103C08FEF9FEF0895AE
:101870009FB7F89482E08093E9002091F20030E075
:101880001216130614F421E030E02115310559F049
:10189000289884E68093BC018091F1008083809138
:1018A000F200882319F09FBFC90108958BE6809349
:1018B000E800F9CF2FB7F89483E08093E900909186
:1018C000E800892F807295FF04C09091F20080E4B7
:1018D000891B2FBF08958091C40181110DC082E042
:1018E0008093C00184E08093C1011092C3011092E3
:1018F000C20181E08093C40180EC91E008951F92C1
:101900000F920FB60F9211248F939F938091E10055
:101910009091E100937F9093E10083FF0FC01092BC
:10192000E90091E09093EB001092EC0092E3909329
:10193000ED001092BD0198E09093F00082FF20C06E
:1019400093E09093E9009091F200992319F09AE3C3
:101950009093E80090916001992339F09091600193
:10196000915090936001992389F19091BC01992342
:1019700039F09091BC0191509093BC01992341F1B1
:1019800084FF10C08091E2008E7E81608093E2002F
:101990008091E1008F7E8093E100809162018E7ED4
:1019A000806111C080FF16C08091E2008E7E806150
:1019B0008093E2008091E1008E7E8093E10080912F
:1019C00062018E7E81608093620104C05D9ACDCFFA
:1019D000289AD6CF9F918F910F900FBE0F901F9096
:1019E0001895E4E6F1E01382128288EE93E0A0E01D
:1019F000B0E084839583A683B78385E291E09183E9
:101A000080838FEF9FEF958784870895789484B5BE
:101A1000826084BD84B5816084BD85B5826085BDEA
:101A200085B5816085BD80916E00816080936E0078
:101A3000109281008091810082608093810080916A
:101A4000810081608093810080918000816080931B
:101A5000800080919100826080939100809191003C
:101A600081608093910080919000816080939000CC
:101A70008091C10084608093C1008091C100826028
:101A80008093C1008091C10081608093C1008091EA
:101A9000C30081608093C3008091C0008260809306
:101AA000C0008091C20081608093C20080917A0062
:101AB000846080937A0080917A00826080937A00BB
:101AC00080917A00816080937A0080917A008068AA
:101AD00080937A001092BD0110926301109262010E
:101AE0008091D70081608093D70080EA8093D800EE
:101AF00089B5806189BD89B5826089BD09B400FE60
:101B0000FDCF61E070E080E090E00E94950680915A
:101B1000D8008F7C80618093D8008091E000807F26
:101B20008093E0008091E1008E7E8093E1008DE063
:101B30008093E200559A209AEEEFFFE78591949109
:101B40008B3F9C4D19F481E08093610162E082E05B
:101B50000E94B20562E087E00E94B20562E083E085
:101B60000E94B20561E086E00E94B20561E089E072
:101B70000E94B20561E08AE00E94B20561E088E05F
:101B80000E94B20589EB92E09093190180931801AD
:101B900080916900837F886080936900E99A8CEA6C
:101BA00095E090931F0180931E0180916A008F7CC5
:101BB000806180936A00EE9A87E00E94830580939B
:101BC000200184E39AE09093BF018093BE010E94BC
:101BD000C5076093B8017093B9018093BA019093DF
:101BE000BB016093B4017093B5018093B6019093EB
:101BF000B7018FEF9FEF9093710180937001C0E068
:101C0000D0E0E091BE01F091BF0109959093BF0132
:101C10008093BE012097A9F30E940000F2CFEE0F3F
:101C2000FF1F0590F491E02D099481E090E0F89475
:081C30000C941A0EF894FFCF8A
:101C380001000500030007000F00FFFFFFFF00E1A0
:101C4800000000000000B802B802B802B802B802EA
:101C58000200000000E701CF06EF02FD010802F3D1
:101C6800021E0300C1808100000073687574646FF0
:061C7800776E000D0A006A
:00000001FF
